:020000040800F2
:100000000050002099010008E3010008E501000804
:10001000E7010008E9010008EB010008000000000A
:10002000000000000000000000000000ED010008DA
:10003000EF01000800000000F1010008F3010008D2
:10004000E1010008E1010008E1010008E101000808
:10005000E1010008E1010008E1010008E1010008F8
:10006000E1010008E1010008E1010008E1010008E8
:10007000E1010008E1010008E1010008E1010008D8
:10008000E1010008E1010008E1010008E1010008C8
:10009000E1010008E1010008E1010008E1010008B8
:1000A000E1010008E1010008E1010008E1010008A8
:1000B000E1010008E1010008E1010008E101000898
:1000C000E1010008E1010008E1010008E101000888
:1000D000E1010008E1010008E1010008E101000878
:1000E000E1010008E1010008E10100080000000052
:1000F0000000000000000000000000000000000000
:0C01000000000000000000005FF808F1A3
:10010C000348044B834202D0034B03B1184770479A
:10011C000000002000000020000000000548064BF5
:10012C001B1AD90F01EBA301491002D0034B03B1E9
:10013C00184770470000002000000020000000005D
:10014C0010B5064C237843B9FFF7DAFF044B13B113
:10015C000448AFF300800123237010BD0000002081
:10016C0000000000CC04000808B5054B1BB1054984
:10017C000548AFF30080BDE80840FFF7CFBF00BFD4
:10018C000000000004000020CC040008002103E063
:10019C000B4B5B58435004310A480B4B42189A42A4
:1001AC00F6D30A4A02E0002342F8043B084B9A4279
:1001BC00F9D300F039F900F05FF900F015F8704749
:1001CC00EC040008000000200000002000000020CB
:1001DC001C000020FEE77047FEE7FEE7FEE7FEE7A7
:1001EC00704770477047704700B583B001211020ED
:1001FC0000F0A6F810238DF807304FF40055ADF839
:10020C00045003238DF806300E4C01A9204600F053
:10021C003BF82946204600F08FF80A4C4FF4005169
:10022C00204600F089F84FF4FA7000F022F84FF4F1
:10023C000051204600F082F84FF4FA7000F019F8E3
:10024C00EBE700BF0010014000EBC000C0004FF016
:10025C00E023586100229A6105221A614FF0E023D5
:10026C001B6913F4803FF9D04FF0E02304221A618C
:10027C00704710B504E04FF47A70FFF7E5FF2046A5
:10028C00441E0028F7D110BD30B5CB7803F00F0217
:10029C00964613F0100F03D091F802E04EEA020ECE
:1002AC000B78FBB10568002301E042610133072B99
:1002BC0017D801229A40B1F800C032EA0C0CF5D1E3
:1002CC009C004FF00F0C0CFA04FC25EA0C050EFAFE
:1002DC0004F42543CC78282CE7D0482CE6D10261D5
:1002EC00E4E705600B88FF2B25D94568002303E064
:1002FC00CC78482C1CD00133072B1BD803F1080CED
:10030C00012202FA0CF2B1F800C032EA0C0CF2D164
:10031C009C004FF00F0C0CFA04FC25EA0C0C0EFAA6
:10032C0004F444EA0C05CC78282CE1D14261DFE7D7
:10033C000261E0E7456030BD016170474161704783
:10034C0021B1054A9369034393617047024A93694B
:10035C0023EA0003936170470010024082B000232F
:10036C00019300932C4A136843F4803313602A4B97
:10037C001B6803F400330093019B01330193009B32
:10038C001BB9019BB3F5A06FF1D1234B1B6813F480
:10039C00003F06D001230093009B012B04D002B038
:1003AC00704700230093F7E71C4B1A6842F01002C9
:1003BC001A601A6822F003021A601A6842F00202EC
:1003CC001A60A3F580535A685A605A685A605A6882
:1003DC0042F480625A605A6822F47C125A605A685D
:1003EC0042F4E8125A601A6842F080721A600A4BA2
:1003FC001B6813F0007FFAD0074B5A6822F00302F7
:10040C005A605A6842F002025A60034B5B6803F070
:10041C000C03082BF9D1C2E7001002400020024067
:10042C0008B5FFF79BFF08BD08B5104B1A6842F0E2
:10043C0001021A6059680E4A0A405A601A6822F082
:10044C00847222F480321A601A6822F480221A60B4
:10045C005A6822F4FE025A604FF41F029A60FFF7AA
:10046C00DFFF044B4FF000629A6008BD00100240A1
:10047C000000FFF800ED00E070B500260C4C0D4BB1
:10048C001D1BB6EBA50F09D1002600F019F80A4C7C
:10049C000A4B1D1BB6EBA50F05D170BD54F8043BE0
:1004AC0098470136EDE754F8043B98470136F1E7DD
:1004BC00E4040008E4040008E4040008E80400086C
:1004CC00F8B500BFF8BC08BC9E467047F8B500BF35
:0804DC00F8BC08BC9E46704705
:0404E4007501000896
:0404E8004D010008BA
:040000050800019955
:00000001FF
